:020000040800F2
:1000000000020020010100086134000821D400082A
:10001000E1620008E1620008E1620008E1620008B4
:10002000E1620008E1620008E1620008E1620008A4
:10003000E1620008E1620008E1620008E162000894
:10004000E16200080144000841440008E162000840
:10005000E1620008A1420008E142000821430008D3
:10006000E1620008E1610008D14B0008414C000842
:10007000717B0008E1620008E1620008D1540008C9
:1000800051460008E1620008E1620008E1620008F0
:10009000E1620008E1620008E162000861470008CF
:1000A000E1620008E1620008E1620008E162000824
:1000B000E1620008E1620008E1620008815B00087B
:1000C000F0B544464D4656465F46F0B46B46CB60AD
:1000D000C3689D46F0BCA046A946B246BB46F0BDEB
:1000E00062B6281CA047002003F0EAFB03F0E0FA08
:1000F000014A024B1360FEE704ED00E000000080BF
:1001000072B6224880F30988022080F31488BFF376
:100110006F8F03F0C5FC07F01BFE1D481D491E4AEA
:10012000914202DA08600431FAE71C49174A914209
:1001300002DA08600431FAE719491A4A1A4B9A425E
:1001400004DA0868106004310432F8E70020174927
:10015000174A914202DA08600431FAE703F0B8FC6A
:1001600003F0A6FC134C144DAC4203DA2168884717
:100170000434F9E70CF014FF104C114DAC4203DAD3
:10018000216888470434F9E70E4908470004002035
:1001900055555555000000200002002000020020A7
:1001A000047D010800040020800500208005002057
:1001B000883F0020C0000008C0000008C000000800
:1001C000C0000008C13A0008000000000000000064
:1001D00002780B78002A03D0013001319A42F7D01F
:1001E000D01A70470000000000000000000000006E
:1001F0000023C25C0133002AFBD1581E7047000067
:10020000002243088B4274D303098B425FD3030A55
:100210008B4244D3030B8B4228D3030C8B420DD368
:10022000FF22090212BA030C8B4202D312120902F6
:1002300065D0030B8B4219D300E0090AC30B8B4234
:1002400001D3CB03C01A5241830B8B4201D38B03E2
:10025000C01A5241430B8B4201D34B03C01A524187
:10026000030B8B4201D30B03C01A5241C30A8B42CA
:1002700001D3CB02C01A5241830A8B4201D38B02B5
:10028000C01A5241430A8B4201D34B02C01A524159
:10029000030A8B4201D30B02C01A5241CDD2C309CB
:1002A0008B4201D3CB01C01A524183098B4201D347
:1002B0008B01C01A524143098B4201D34B01C01A32
:1002C000524103098B4201D30B01C01A5241C308AA
:1002D0008B4201D3CB00C01A524183088B4201D319
:1002E0008B00C01A524143088B4201D34B00C01A05
:1002F0005241411A00D20146524110467047FFE771
:1003000001B5002000F0FCF802BDC0460029F7D07E
:1003100076E77047000000000000000000000000C9
:1003200003460B437FD4002243088B4274D3030956
:100330008B425FD3030A8B4244D3030B8B4228D3F7
:10034000030C8B420DD3FF22090212BA030C8B421D
:1003500002D31212090265D0030B8B4219D300E0BD
:10036000090AC30B8B4201D3CB03C01A5241830B42
:100370008B4201D38B03C01A5241430B8B4201D3F2
:100380004B03C01A5241030B8B4201D30B03C01A1B
:100390005241C30A8B4201D3CB02C01A5241830A95
:1003A0008B4201D38B02C01A5241430A8B4201D3C4
:1003B0004B02C01A5241030A8B4201D30B02C01AEE
:1003C0005241CDD2C3098B4201D3CB01C01A524155
:1003D00083098B4201D38B01C01A524143098B42DE
:1003E00001D34B01C01A524103098B4201D30B01C7
:1003F000C01A5241C3088B4201D3CB00C01A5241EC
:1004000083088B4201D38B00C01A524143088B42B0
:1004100001D34B00C01A5241411A00D20146524149
:10042000104670475DE0CA0F00D04942031000D368
:100430004042534000229C4603098B422DD3030ABD
:100440008B4212D3FC22890112BA030A8B420CD3CD
:10045000890192118B4208D3890192118B4204D3F6
:1004600089013AD0921100E08909C3098B4201D376
:10047000CB01C01A524183098B4201D38B01C01AB0
:10048000524143098B4201D34B01C01A5241030927
:100490008B4201D30B01C01A5241C3088B4201D3D6
:1004A000CB00C01A524183088B4201D38B00C01A83
:1004B0005241D9D243088B4201D34B00C01A52415A
:1004C000411A00D20146634652415B10104601D3E7
:1004D0004042002B00D54942704763465B1000D371
:1004E000404201B5002000F00BF802BD0029F8D011
:1004F00016E7704700000000000000000000000048
:100500007047C0460000000000000000000000002E
:100510008446101C62468C46191C634600E0C046A7
:100520001FB501F0CDFF002801D40021C8421FBD36
:1005300010B501F01DFF4042013010BD10B501F0B3
:10054000BFFF002801DB002010BD012010BDC04608
:1005500010B501F0B5FF002801DD002010BD01201D
:1005600010BDC04610B501F043FF002801DC00209B
:1005700010BD012010BDC04610B501F039FF0028A4
:1005800001DA002010BD012010BDC04600000000AF
:100590008446081C6146FFE71FB500F0C9FC00282F
:1005A00001D40021C8421FBD10B500F059FC4042E3
:1005B000013010BD10B500F0BBFC002801DB0020AD
:1005C00010BD012010BDC04610B500F0B1FC0028E0
:1005D00001DD002010BD012010BDC04610B500F0A7
:1005E00067FC002801DC002010BD012010BDC046C2
:1005F00010B500F05DFC002801DA002010BD0120DC
:1006000010BDC04600000000000000000000000017
:10061000002B11D1002A0FD1002900D1002802D0CF
:100620000021C943081C07B4024802A140180290E7
:1006300003BDC046CDFEFFFF03B4684601B5029876
:1006400000F06EF8019B9E4602B00CBC7047C0469D
:10065000F0B5CE46474615042D0C2E0080B5070494
:10066000140C3F0C9946030C7E435D436743634380
:100670007F19340CE4199C46A54203D980235B0200
:100680009846C4444B46514343433604360C250C2C
:1006900024046544A4195918491920000CBC90463B
:1006A0009946F0BD000000000000000000000000BE
:1006B0009E2110B5C905041CFFF79AFF002803D13D
:1006C000201C00F055FF10BD9E21201CC90500F024
:1006D00097FD00F04DFF80231B069C466044F2E727
:1006E00070B500220C4B04000D00FFF745FF0028F9
:1006F00004D12000290002F0E3FC70BD064B00226B
:100700002000290002F0C4F902F0DAFC80231B0665
:100710009C466044F1E7C0460000E0410000000054
:10072000F0B557464E464546DE46E0B5040083B078
:100730000D00924699468B422FD82CD04946504600
:1007400002F07EFE29000600200002F079FE331A36
:100750009846203B9B4600D574E053465A4693404A
:100760001F005346424693401E00AF4229D826D070
:100770005B46A41BBD41002B00DA79E00022002378
:100780000092019301235A4693400193012342466C
:100790009340009319E08242D0D9002200230092B6
:1007A00001930C9B002B01D01C605D6000980199A7
:1007B00003B03CBC90469946A246AB46F0BDA3426E
:1007C000D6D900220023009201934346002BE8D0A3
:1007D000FB0772081A4346467B080EE0AB4201D184
:1007E000A2420CD8A41A9D41012024196D41002178
:1007F000013E24184D41002E06D0AB42EED9013EF9
:1008000024196D41002EF8D15B460098019900191A
:100810006941002B22DB2B005A46D3402A00444674
:10082000E2401C005B461500002B2CDB26009E409E
:10083000330026004746BE403200801A994100909E
:100840000191AEE7424620239B1A5246DA404146C8
:1008500013004A468A4017001F4382E7424620237E
:100860009B1A2A0046469A402300F3401343D5E7DB
:100870004246202300219B1A00220091019201226E
:10088000DA40019282E74246202326009B1ADE408E
:100890002F00B446974066463B003343C9E7C04645
:1008A000F0B5C6464E024702760A7B0A4400C50FE1
:1008B000F7004800984600B5240E2A00DB00000E21
:1008C000C90FBC468D4267D0221A002A00DCA5E081
:1008D00000283AD1002F00D193E0511E002900D00A
:1008E000BCE00124DB1B5A0146D59B019E09300068
:1008F00002F086FD05388640844200DD9DE0041B41
:10090000320020200134E240041BA64033005E1E6A
:10091000B341002413435A0704D00F221A40042A7B
:1009200000D004335A0129D50134FF2C00D181E0D5
:100930002A009B015B0AE4B25B02E405580AD20775
:100940002043104304BC9046F0BDFF2CE3D080212F
:100950003800C904084384461B2A00DD82E02020B9
:100960006146D140821A604690400200501E82418A
:100970000A439B1A5A01B8D45A07CED1DE082A007E
:10098000FF2C3AD1002E00D1AEE08023DB033343AD
:100990005B025B0AFF24CFE7211A002952DD002801
:1009A00031D0FF2CB7D080203E00C0040643B446AF
:1009B0001B2900DDAAE020266046C840711A664661
:1009C0008E4031004E1EB14101435B185901D3D511
:1009D0000134FF2C00D187E0012278491A405B08DE
:1009E0000B40134397E7002C00D0A7E0002B00D06A
:1009F000B6E03B1E62D10026002273025B0AE4B21D
:100A00009AE7140087E7002F4DD0481E002857D1E1
:100A1000634401245A01AFD50224DDE7002A24D122
:100A2000621CD2B2012ADEDDDE1B720135D5FE1A50
:100A30000D005CE72A0000237EE73300604A241A99
:100A4000134068E7002963D1611CC8B201284EDD5C
:100A5000FF2949D063445B080C005CE7FF2A41D0C2
:100A60000A0079E701229B1A84E7002C1DD0FF2899
:100A700022D08024E404524223431B2A00DD8AE072
:100A80001C002025D440AA1A93405A1E93412343A8
:100A900062460400D31A0D0025E7002E00D026E799
:100AA00000220024A9E70C0035E7002B4DD0D243EB
:100AB000002AEDD0FF28E0D16346FF240D002AE78D
:100AC000FF290FD0010073E7002B61D0FF24002F16
:100AD00000D120E780224146D203114202D01642C3
:100AE00000D13B00FF2416E7FF24002324E7002C5D
:100AF000EAD1002B58D0002F00D10CE763445A01F3
:100B000000D439E72E4A0C00134004E701215CE7CA
:100B1000002C1ED1002B40D0C94300290BD0FF2848
:100B200036D01B2947DC1C002026CC40711A8B4094
:100B3000591E8B4123436344040047E7002B18D11F
:100B40003B1E2DD00D00FF24E5E63B0004000D0008
:100B5000E1E6FF281CD08024E40449422343E0E777
:100B6000002F00D1D7E6DE1B72011FD5FB1A0D0046
:100B7000D1E6FF24002F00D1CDE680224046D203EB
:100B80001042AFD01642ADD13B000D00FF24C2E6AB
:100B90006346FF24BFE601237AE73B000400BAE680
:100BA00080260022F603F0E63B00B4E6331E00D0B8
:100BB000E2E6002221E70123BDE7C046FFFFFF7DFB
:100BC000FFFFFFFB0000000000000000000000002D
:100BD000F0B557464E46DE464546E0B54402430072
:100BE000C60F83B00F1C640A1B0EB24653D0FF2BF6
:100BF00027D08022E400D20414437F225242904640
:100C00009844002399469B467D027800FB0F6D0AAD
:100C1000000E009324D0FF2846D080230021ED0051
:100C2000DB041D437F384746381A4F460F43BF0049
:100C3000B9463300009A874F53404A46BA58019349
:100C40009746002C4ED108239946F7339846FD3B32
:100C50009B467D027800FB0F6D0A000E0093DAD1EF
:100C6000002D26D1002001213300009A7A4F5340F5
:100C70004246101A4A460A439200BA581D00974647
:100C8000009B2C009A468B465B46022B31D1534683
:100C9000FF21002438E0002C17D1042399460023BB
:100CA000984601339B46AFE7FF20002D0BD1022170
:100CB000DAE7280002F0A4FB431F9D4076235B4245
:100CC000181A0021AFE70321ADE7200002F098FBDE
:100CD000431F9C4076235B421B1A9846002399468B
:100CE0009B4691E70C239946F3339846FC3B9B4681
:100CF0008AE7032B00D1A5E05546012B00D081E007
:100D00000123002100242B406402C905600ADB078F
:100D10000843184303B03CBC90469946A246AB46F4
:100D2000F0BD80240023E403FF21EDE7FF21002430
:100D3000EAE70123591A1B2966DD019A13400021B5
:100D40000024E1E78023DB031C4238D01D4251D050
:100D50001C436402640A3300FF21D5E763016C0180
:100D6000A3423BD21B260021013801251F00490068
:100D70005B00002F01DB9C4201D81B1B2943013E75
:100D8000002EF3D11C00631E9C410C4301007F31F7
:100D90000029CEDD630704D00F232340042B00D0AD
:100DA0000434230103D501002C4B80311C40FE2963
:100DB0000DDD0123019AFF2113400024A4E78023C5
:100DC000DB031C436402640A3300FF219CE7012318
:100DD000019AA401640AC9B2134095E71B1B1A26A5
:100DE0000121C2E7009B8B469A4600244CE7630230
:100DF000E5D500258024E4032C436402640A009BAB
:100E0000FF2181E70195C1E723002020CB40411A53
:100E10008C40611E8C411C43630704D00F23234088
:100E2000042B00D00434630105D50123019A01216C
:100E30001340002468E70123019AA401640A1340C7
:100E4000002161E78023DB031C436402640A5346EC
:100E5000FF2159E7A0430108E0430108FFFFFFF726
:100E600070B5420045024E024C00C30F6D0A120ECF
:100E7000760A240EC90F0120FF2A06D0FF2C03D0CA
:100E8000A24201D1B54206D070BD002DFCD1FF2C8D
:100E9000FAD1002EF8D18B4206D00120002AF3D1DE
:100EA0002800451EA841EFE70020EDE70000000004
:100EB000F0B5420045024C02C30F48006D0A120E05
:100EC000640A000EC90FFF2A1ED0FF2821D0002A75
:100ED0000AD16E426E41F6B200280FD1002C0DD11E
:100EE0000020002D09D005E0002801D1002C01D000
:100EF0008B4211D0012158420843F0BD002EF7D09B
:100F0000012001390843F8E7002DDED002204042DD
:100F1000F3E7002CDBD0F9E78242EBDC04DBA542EF
:100F2000E8D80020A542E8D20121581E0843E4E792
:100F3000F0B542004D024C004602760A120EC30F75
:100F40006D0A240EC90FFF2A16D0FF2C18D0002AD4
:100F50000AD170427041C0B2002C15D0002805D0D3
:100F6000012001390843F0BD002C13D0994214D060
:100F700001205B421843F6E70220002EF3D1E4E79C
:100F80000220002DEFD1E2E7002DE7D10020002E56
:100F9000E9D0EDE7002DE9D1EAE7A24206DCDFDB8C
:100FA000AE4203D80020AE42DAD3DCE7012049424A
:100FB0000843D8E700000000000000000000000027
:100FC000F8B557464E464546DE46E0B54702460070
:100FD00088467F0A360EC40F002E47D0FF2E24D03D
:100FE000FB008027FF041F43002399469A467F3E5B
:100FF00043465D025800DB0F6D0A000E984643D051
:10100000FF283BD0EB0080250022ED041D437F38F4
:101010003618731C41469B464B46614013430F2BC9
:1010200064D875489B00C3589F46002F42D10823BF
:101030009946063BFF269A46DAE74146022A28D01F
:10104000032A00D1CEE0012A00D0ACE011400020FC
:101050000022CCB24002D205400AE40710432043EC
:101060003CBC90469946A246AB46F8BD002F15D130
:1010700004239946033B00269A46B9E7FF20022243
:10108000002DC5D00322C3E7002D19D10020012275
:10109000BEE70124FF220C400020DBE7380002F00D
:1010A000AFF97626431F9F4000237642361A9946B1
:1010B0009A469DE70C239946093BFF269A4697E7F7
:1010C000280002F09DF9431F9D4076235B42181AC9
:1010D00000229DE780200024C003FF22BAE73D00E4
:1010E0005246ABE73D0021005246A7E73B0C9C4629
:1010F0002A04120C2B0C1400604665463F043F0C7A
:101100007C4342435D437B43270C9B18FF18BA4244
:1011100003D980235B029C46654424043A04240CD2
:10112000121993015C1EA3413F0C920E7D191A43C4
:10113000AD0115432B0104D501235E466A081D400D
:10114000154332007F32002A25DD6B0704D00F23C0
:101150002B40042B00D004352B0103D53200274B44
:1011600080321D40FE2A94DC0124A801400AD2B23C
:101170000C406FE78020C003074207D0054205D12D
:1011800028434002400A4446FF2263E738434002B6
:10119000400AFF225EE70124A31A1B2B05DD0C4049
:1011A0000022002056E75E46CBE72A002020DA40E6
:1011B000C31A9D402B005D1EAB4113435A0704D058
:1011C0000F221A40042A00D004335A0104D5012406
:1011D00001220C4000203DE701249B01580A0C40ED
:1011E000002237E780200124C00328434002400A40
:1011F0000C40FF222EE7C04620440108FFFFFFF706
:10120000F0B54F46D64646464400C0B5C20F470229
:101210004802400A844666467B0A4800C90F9A463F
:10122000240E1500DB00000E8946F600FF2800D1D1
:101230008FE001214F464F403900914266D0221A7B
:10124000002A00DC9DE000283DD1002E00D18BE07B
:10125000511E002900D0B5E001249B1B5A0144D542
:101260009B019F09380002F0CBF805388740844283
:1012700000DD96E0041B3A0020200134E240041B0C
:10128000A7403B005F1EBB41002413435A0704D014
:101290000F221A40042A00D004335A0127D5013402
:1012A000FF2C00D179E001229B015B0AE4B22A40C5
:1012B0005B02E405580AD207204310431CBC904649
:1012C0009946A246F0BDFF2CE0D08021C9040E4310
:1012D0001B2A7BDC31002020D140821A9640721EEE
:1012E00096410E439B1B5A01BAD45A07D0D1012212
:1012F000DF082A40FF2C33D1002F00D1A8E0802343
:10130000DB033B435B025B0AFF24D1E7211A002980
:101310004CDD00282AD0FF2CB8D08020C004064322
:101320001B2900DDAFE030002027C840791A8E402D
:10133000711E8E4106439B195901D6D50134FF2CED
:1013400000D185E001227A491A405B080B40134323
:101350009CE7002E00D070E76BE73B1EC5D1002252
:101360007B025B0AE4B2A3E714008FE7002E4DD0A6
:10137000481E002857D19B1901245A01B5D50224D3
:10138000E0E7002A25D1621CD2B2012A72DD9F1B40
:101390007A0135D5F71A0D0064E7012200232A40AF
:1013A00086E73B00634A241A13406FE700296CD19B
:1013B000611CC8B201284EDDFF2949D09B195B088A
:1013C0000C0063E7FF2A41D00A0081E701269B1B3E
:1013D00089E7002C1CD0FF2821D08024E40452424D
:1013E00023431B2A00DD96E01C002025D440AA1AC6
:1013F00093405A1E93412343F31A04000D002DE736
:10140000002F00D02EE700220024A9E70C003DE7C2
:10141000002B58D0D243002AEED0FF28E1D1330070
:10142000FF240D0032E7FF2910D0010078E7002BE0
:101430006ED0FF24002E00D128E780225146D2032F
:10144000114203D06146114200D13300FF241DE751
:10145000FF2400232CE7002CE9D1002B63D0002EC1
:1014600000D113E79B195A0100D43EE7314A0C0022
:1014700013400BE7002C1ED1002B2FD1002E4FD094
:1014800033000D0002E7012655E7002C1FD1002B89
:1014900043D0C94300290BD0FF2839D01B2944DC95
:1014A0001C002027CC40791A8B40591E8B412343C6
:1014B0009B19040040E7002B1AD1002E24D180276D
:1014C0000022FF031BE7330004000D00DEE6FF28C7
:1014D0001ED08024E40449422343DFE7002E00D1DC
:1014E000D4E69F1B7A0100D437E7F31A0D00CDE64E
:1014F000FF24002E00D1C9E680225046D2031042BC
:10150000A4D060461042A1D133000D00FF24BDE6F7
:101510003300FF24BAE601236EE733000400B5E68A
:10152000002700221CE73300B0E60123C0E7C046D5
:10153000FFFFFF7DFFFFFFFB000000000000000039
:1015400042024B0240004900520A000E5B0A090E9B
:10155000FF2803D00020FF2906D07047FE38002A5C
:10156000FBD10020FF29F8D11800431E9841F4E771
:1015700041024300C20F490A1B0E00207E2B0DDDE5
:101580009D2B0CDC802000040143952B0ADC962067
:10159000C31AD9404842002A00D108007047034BC3
:1015A000D018FBE7963B9940F4E7C046FFFFFF7F6A
:1015B00070B5002830D0C317C4185C40C50F200098
:1015C00001F01EFF9E231B1A962B0DDC9622D21AC9
:1015D00094402A006402640ADBB26402DB05600AFC
:1015E000D2071843104370BD992B19DC9922D21AE7
:1015F000002A29DD94402200144C1440510704D0E5
:101600000F210A40042A00D00434620113D4A4013B
:10161000640ADBB22A00E0E7002200230024DCE7B2
:1016200005222100121AD140B922D21A9440621E1A
:1016300094410C43DAE7054B2A001C409F23A40188
:101640001B1A640ADBB2C8E72200D5E7FFFFFFFBE5
:1016500010B5041E27D001F0D3FE9E231B1A962B33
:101660000ADC9622D21A94406402640ADBB2640255
:10167000DB05600A184310BD992B17DC9922D21A9A
:10168000002A27DD94402200134C1440510704D057
:101690000F210A40042A00D00434620112D4A401AC
:1016A000640ADBB2E3E700230024E0E7B92221006B
:1016B000D21A91400A00511E8A410521091ACC40D4
:1016C0001443DBE7044B1C409F23A4011B1A640A4C
:1016D000DBB2CCE72200D7E7FFFFFFFB00000000F2
:1016E000F8B54546DE4657464E460C03E0B54E007B
:1016F000C90F88460D00610A440F0C43C700190347
:101700005800DB0F9B464B0A510F0B43760D400DE3
:101710001900D200D84500D1AEE0351A002D00DC0A
:10172000F6E000280FD1134300D1DBE06B1E002B45
:1017300000D037E1BA1A9742BF41641A7F42E41BD6
:101740000126170024E0C64B9E424DD080231B0487
:101750001943382D00DD07E11F2D00DD38E1202081
:10176000431B9A460B005046834099461300484657
:10177000EB401843030050468240501E8241E9402E
:101780001A43BA1A611A9742A441170064420C1B0B
:10179000230262D56402650A002D00D1DFE0280033
:1017A00001F02EFE0300083B1F2B00DDD2E02022BB
:1017B0003C00D21A9D40D4409F4025439E4200DD0C
:1017C000C4E09E1B731C1F2B00DDF1E020223800BB
:1017D0002900D21AD840914097402C000143781E2E
:1017E0008741DC4000260F437B0709D00F233B4095
:1017F000042B05D03B1DBB42BF417F42E4191F00B3
:1018000023022CD5964B01369E4200D19AE04546E4
:10181000944BFF081C406007760564020743240BC5
:10182000760D00212403230B0C0D8F4A24051C4345
:101830001440330523435B00ED075B082B4338005E
:1018400019003CBC90469946A246AB46F8BD64469A
:10185000044300D111E2040067467B07C6D1454628
:101860006007FF080743E4087D4B9E4230D0240305
:101870007605240B760DD4E7331A9A46002B78DDD3
:10188000002831D076488642AED080200004014343
:101890005346382B00DCE9E00A43511E8A410021FF
:1018A000D219BA42BF4109197C4217000C19230210
:1018B000D3D56B4B01369E4200D13AE10120694BF2
:1018C0001C407B0807401F43E007074364088BE781
:1018D00023003B4300D1CBE18022120314432403B5
:1018E000240B9EE72E007FE70800104300D1B4E0F0
:1018F000581E002800D0DEE0BA18BA429B41641896
:101900005B42E418170001262302A6D50226D5E77C
:10191000002D6ED1701C4005400D012800DCF9E05F
:10192000B81A844687428041E51A40422D1A28029F
:1019300000D489E0D71BBA4292411C1B5242A51A1F
:10194000D84629E74546002400276AE7454CF61AA1
:101950002C4049E73D002838854000272EE7380015
:1019600001F04EFD20301DE70A43511E8A4100213F
:1019700007E7002B00D0F3E0701C43055B0D012B43
:1019800000DCADE0364B984200D1D1E0BA18BA4243
:10199000BF4164187F42E419E707520817436408FF
:1019A000060021E72E48854200D193E01D00D0E6D5
:1019B00029001F3EF140202B00D18DE04022D31A98
:1019C0009D402F437D1EAF4100240F43002644E776
:1019D0002B000800203BD8400300202D00D17DE0E3
:1019E0004020451BA9400A43511E8A4100211A4349
:1019F000C7E6002E50D01A4EB04257D080266B4218
:101A00009946360434434B46382B00DDD6E01F2B75
:101A100000DD35E12026F51A2600AE40B2463E0034
:101A2000DE40AC46350056462E436546AF407D1E2F
:101A3000AF41DC403743D71BBA4292410C1B5242A4
:101A4000A41A0600D846A3E6644667462C4300D095
:101A5000A2E600250026002706E71E00C4E6C046D1
:101A6000FF070000FFFF7FFFFFFF0F801F2B63DCDE
:101A70002020C31A080098409C4683465346100015
:101A8000D84003005846184363469A40531E9A4173
:101A900053460243D94003E726003E4306D0EB43BA
:101AA0009946002BC7D0944EB042ACD10C00170021
:101AB0000600D84698E6904B9A450BD08246E7E65A
:101AC000002800D09EE01800104300D1E9E01C007F
:101AD0001700D846884E87E6002572E7002182E786
:101AE00023003B43002E00D0ABE0002B00D1E7E009
:101AF0000B00134300D177E6BA18BA42BF4164180D
:101B00007F42E419230200D4F2E07C4B17001C4012
:101B1000060069E620003843002ED1D100285BD1B1
:101B20001C00144300D1A8E01C001700D8465BE657
:101B300006000024002797E650460B002038C340DB
:101B400099465346202B00D195E0402350461B1A5E
:101B500099400A43511E8A414B4600211A439FE691
:101B6000002E30D126003E4367D0DB439A46002B3F
:101B70001CD0614EB04260D05346382B00DD96E059
:101B80001F2B00DD9FE02026F31A26009E409C4676
:101B9000B34653463E00DE4033005E461E43634676
:101BA0009F407B1E9F415346DC403743BF189742FE
:101BB000924164185242A418060078E627437C1E1E
:101BC000A741002437E74C4EB04236D080265B4216
:101BD00036049A463443CFE71800104300D103E699
:101BE000B81A84466745AD41E01A6D42401B0502B4
:101BF00000D42CE6D71BBA4292411C1B5242A41AB5
:101C0000D846F1E51800104300D163E7F8086707EC
:101C100007438020E4080003044208D0DD080542A1
:101C200005D1D208590711430F002C00D8467B0F6D
:101C3000E4001C43FF00304ED6E50C001700060000
:101C4000D2E5002B38D00B00134300D142E7F8084F
:101C5000670707438020E40800030442E7D0CB086D
:101C60000342E4D1D208490711430F001C00DEE70C
:101C700000270024D5E500216BE700250027F3E5C8
:101C80004E462500203EF5404B462E00202B2DD001
:101C90004025ED1AAC4027437C1EA7410024374362
:101CA000C9E6802400252403134E0027DCE52743E2
:101CB0007C1EA741002479E70C0017000E4E93E527
:101CC0000C00170090E556462300203EF34099464D
:101CD0005346202B0ED0402356469B1B9C40274347
:101CE0007C1EA7414B4600241F435FE70024D2E738
:101CF0001700B2E50024F2E7FF070000FFFF7FFFB7
:101D0000F0B557464546DE464E46E0B54C000E035C
:101D100087B0834692461D008046360B640DCF0F78
:101D2000002C4FD06F4B9C4235D08023420F1B04B8
:101D3000F600134333439946C30098466A4B002686
:101D40009C460023644403932B031B0B9B466B00B0
:101D5000ED0F50465B0D01955ED0624A934253D021
:101D60005A46D1008022400F120402430A43934690
:101D70005246D1005C4A94460022634438006840D1
:101D800084460290E41A16430F2E00D9B4E0574B54
:101D9000B6009B599F460300334399466CD10023FC
:101DA0009846023308260393CEE7CB464146039A72
:101DB0000197022A65D1019B4A4C9C4600230022D0
:101DC00098466BE00300334399464ED0002E00D175
:101DD000BCE1300001F014FB03000B3B1C2B00DDC9
:101DE000ACE11D22D31A5A460100DA4008398E4070
:101DF0001300334399465B468B40984600233C4C86
:101E00000026241A03939FE751465A46114329D1CD
:101E1000002293460232B1E7594601431ED05B4689
:101E2000002B00D19EE1584601F0EAFA03000B3B7B
:101E30001C2B00DD8FE102005946083A91408B4689
:101E40001D21CB1A5146D9400B0059460B43514630
:101E50009B469140264B00221B1A8FE7002301224C
:101E60009B468BE75146032288E7002398460133BF
:101E700004260024039367E70323B14603930C264B
:101E800062E7032A00D15CE2019B012A00D0E4E171
:101E900013409C4600230024002298460021120390
:101EA000130B0A0D12051A432305124C404622401B
:101EB000134362465B00D2075B081343190007B067
:101EC0003CBC90469946A246AB46F0BD002380221A
:101ED0009C4612039846034CE0E70023014C002285
:101EE0009846DBE7FF07000001FCFFFF60440108A4
:101EF0000DFCFFFFFFFF0F80D94500D939E100D16C
:101F000034E1002346464D469A46013C5B460A0EA4
:101F10001B021A430B02170C039313041B0C39000A
:101F2000280090460193FEF76BF90200019B83465F
:101F30005A43280039009146FEF7E8F9350C0904A8
:101F40000D43A9450DD95B464544013BA84500D941
:101F50003AE1A94500D837E102235B429C4645445B
:101F6000E3444B46EB1A390018000493FEF748F996
:101F7000019B05004343390004989946FEF7C6F9D2
:101F8000330409041B0C0B43994509D943446A1EC9
:101F9000984500D91AE1994500D817E1023D43441C
:101FA0004A469B1A5A4612042A4303999346100C38
:101FB0000A0C914609045A46090C4E460D001204BB
:101FC000120C4543059151437243704352190E0C54
:101FD000B218954203D980256D02AC466044150CB9
:101FE00009041204090C28185218834200D2CEE0CA
:101FF00000D1C8E01D1A53469E1AB2459241524282
:10200000AB1A9A46984500D117E139001800FEF73F
:10201000F7F8019B05004343390050460493FEF74F
:1020200075F904980B04310C1943884209D94144CD
:102030006B1E884500D907E1884200D804E1023DC3
:102040004144049BCB1A180039000493FEF7D8F8DA
:10205000019B82464343390004980193FEF756F9E9
:1020600001980B043104090C194388420DD95346D9
:102070004144013B884500D9E8E0884200D8E5E0CA
:1020800002235B429C464144E244019B2D04CE1A4C
:1020900051462943059D4F462A000B04080C1B0C92
:1020A0005A4345437B4378435B19170CFB189D4209
:1020B00003D980256D02AC4660441D0C12041B043C
:1020C000120C28189B18864200D293E000D18EE0B3
:1020D00001231943A04BE318002B00DC99E04A07C9
:1020E00000D09EE05A46D20106D55A469B4B1A4074
:1020F00080239346DB00E318994A934268DD01236D
:10210000029A984C1A400023944698460022C5E64D
:1021100080224B46120313420AD05B46134206D17B
:102120001A431203120BAC4688468E4CB6E64B4659
:102130001A431203120BBC468A4CAFE603005A4600
:10214000283B9A4000239146984657E6584601F0AE
:1021500057F9203040E603005246283B9A400021C0
:10216000934677E601F04CF920305FE6884500D2CF
:10217000C7E64B46DE075D0843465B081E43434601
:10218000DB079A46C2E60025924500D333E7039E5B
:102190005946B446E244B245AD416D424544EB1860
:1021A0000139984507D2984200D97FE000D1BCE0C0
:1021B0001D1A8B461FE79845FAD1039D5545F2D964
:1021C00043468B461D1A16E79B46CAE61500E7E60E
:1021D0005A46C90852070A435B0590465C0D5A46A9
:1021E0000123029952021940120B8C4656E6002B2D
:1021F00000D16FE746444A1EB04529D911008642F6
:1022000000D065E7039A934200D061E762E70121BD
:1022100049420120C21A382A21DD029B03409C4614
:1022200038E60F220A40042A00D15BE70A00111D9C
:10223000914292415242934454E7474BE318002B9A
:10224000E5DD01225242F2E71D00FAE69A461CE75C
:10225000B04239D86ED011003AE702933AE71F2A0C
:102260003CDC20239B1A0C005846994098404B1E9A
:1022700099415B46D440D340204308431A004307AA
:1022800009D00F230340042B05D00100081D88420C
:102290009B415B42D21813023AD50123029A0124D2
:1022A0001A400023944698460022F7E5022149424D
:1022B0008C46039DE344AC46E244AA45AD416D42E1
:1022C0004544ED182D1A96E68A1E03994D008D425D
:1022D000894149424144761803958FE71F204042C7
:1022E000C31A5846D8400300202A28D040205D4613
:1022F000821A954029434A1E91411943072300221F
:102300000B4009D00F2300220B400800042BBDD145
:10231000010053075202120BC908194301238846D2
:102320000299002419408C46B8E55245BED88B4628
:10233000002560E6039D9D42C6D3110062E700259B
:10234000D8E780225B4612031A43019B1203120B4B
:102350009C468846034CA1E5FF030000FFFFFFFEFB
:10236000FE070000FF070000000000000000000062
:10237000F0B54F464646D6465C00C0B51F03DB0F9E
:102380009A46174B0E034D0084468046360B6D0D62
:10239000C90F91463F0B640D01209D4208D09C421D
:1023A00001D0A5420BD01CBC90469946A246F0BD78
:1023B00063463343F7D1AC42F5D13A43F3D1012020
:1023C000BE42F0D1C845EED1514507D0002DEAD12B
:1023D00063461E433000461EB041E4E70020E2E7BA
:1023E000FF070000000000000000000000000000E7
:1023F000F0B54546DE4657464E46E0B51F033D0B59
:102400002C4F0E034C00AB465D008446360B640D2A
:10241000C90F90466D0DDB0FBC422AD0254FBD423F
:102420002DD0002C0FD130430700814678427841EF
:10243000C0B2002D17D15F463A4314D14B4600205D
:10244000002B0AD006E0002D02D15846024301D0ED
:10245000994218D04842012108433CBC9046994615
:10246000A246AB46F0BD0028F2D00120013B184344
:10247000F3E737000743D1D002204042EDE75F4643
:102480001743CED0F8E7AC42E4DC03DA481E012162
:102490000843E2E75E45DDD806D000205E45DCD289
:1024A0000123481E1843D8E7C445D3D80020C445AB
:1024B000F6D3D2E7FF070000000000000000000094
:1024C000F0B54E464546DE4657465C00E0B51F0374
:1024D000DB0F99462A4B0E034D00C90F8446360B7D
:1024E0006D0D8B4690463F0B640D9D4220D0244BD2
:1024F0009C4222D0002D12D1304343424341DBB2F3
:10250000002C1FD0002B0CD04B460120013B034375
:1025100018003CBC90469946A246AB46F0BD002C44
:1025200016D0CB4517D05B46594201230B43EFE74A
:10253000310002230143EBD1D9E7390002231143D3
:10254000E6D1D7E73A43DDD100230028E0D0EAE71F
:102550003A43E6D1E7E7A542E5DC05DBBE42E2D837
:1025600007D00023BE42D3D25946012301390B4381
:10257000CEE7C445D7D80023C445F5D3C8E7C04645
:10258000FF07000000000000000000000000000045
:10259000F0B557464546DE464E46E0B50C03984634
:1025A0004E00230B87B0070092469B46760DCD0F59
:1025B000002E6BD06D4B9E4235D080245B46420F7F
:1025C0002404DB0014431C43C3009946684BA34614
:1025D0009C46002300276644029343461C035A008E
:1025E000DB0F5046240B520D984600D176E05F4B2E
:1025F0009A426DD08023410F1B040B435C49E400D9
:102600008C461C43C300002062444146B618694012
:10261000721C0191944607430F2F00D9B0E0554A30
:10262000BF00D25997465B460343994600D087E0E6
:1026300000239B46023308270293CEE742460192CD
:10264000022867D0032800D10EE2012800D062E101
:10265000002300240022994601990140CDB20021B7
:1026600012030B0D120B1B051343434A24051340A1
:102670001C436400ED0764082C434846210007B062
:102680003CBC90469946A246AB46F0BD03439946F2
:102690004FD05B46002B00D189E1584600F0B0FED8
:1026A00003000B3B1C2B00DD7AE11D22D31A3A00FC
:1026B00001005C46DA4008398C4013008F40234308
:1026C0009B46B94600232D4E0027361A029384E715
:1026D000534623432AD10024022096E7534623433E
:1026E00020D0002C00D157E1200000F089FE03002B
:1026F0000B3B1C2B00DD49E11D21CB1A514602008A
:10270000D9405346083A944093400C431B4A121A4E
:1027100000207AE70125019B144C1D400023002274
:1027200099469CE70024002201206EE753460320CF
:102730006BE700239B4601330427002602934CE7F6
:10274000032381460C27029347E7802200230025BC
:1027500012039946054C82E75C464B4602986FE7A8
:102760005C464B46019502986AE7C046FF070000A9
:1027700001FCFFFFA0440108FFFF0F800DFCFFFFDD
:102780004A464946170C1A0C1B041B0C0804190076
:10279000000C41431500884619007D437943039599
:1027A00089462900150045434D44029545462D0CA8
:1027B000AA46029D5544A94506D98A468021490268
:1027C0008946CA4451460391290C049141460904A3
:1027D0002D04090C88462900250C24044144240CAE
:1027E0000591210041438846210079438A46684388
:1027F000414650448146080C48446F43824503D902
:102800008021490289464F44010C894639004944D8
:10281000029141460F0404993F0C88460004C019F8
:1028200080444146049159460F0C0904090C88461E
:1028300059438A4639005143894641464A435146E5
:10284000090C8B467B43D2185A44934203D9802308
:102850005B029B46D94451460904090C8A4641460D
:1028600061437C43130C12044B445244A1468A46F4
:102870003C0041466C434D4351464D440F0C7D197D
:10288000A94503D98021490288464444049F0399FD
:10289000B84641448B468345804141428846514673
:1028A00008042F04000C3F18584602991018894656
:1028B000904292414F44BA46524299469346C2448E
:1028C000D144CB448F42BF41C245894199459B4188
:1028D000934592417F4249422D0C52420F435B4245
:1028E00013437F19FF185B463C19DB0D059A640200
:1028F0001C43430213435D1EAB415A46C00D0343C4
:1029000052021343E20156D501205A0803401343F3
:10291000E207134364085A48604400284DDD5A0713
:1029200009D00F221A40042A05D01A1D9A429B4151
:102930005B42E4181300E20104D58020514AC00034
:1029400014406044504A904200DDE3E60125DB0874
:1029500062071A436402019B9146220B4405640DF1
:102960001D407CE6802259461203114208D01442D1
:1029700006D122431203120B45469946434C6EE69C
:102980005B461A431203120B404C68E603005446A0
:10299000283B9C400023B9E600F032FD2030A6E63B
:1029A0000300283B9F400023BB4699468AE600F07F
:1029B00027FD203074E6B446ADE701252A1A382AEF
:1029C00006DD019B00241D4000230022994646E6B7
:1029D0001F2A21DC20252000AD1A1E00AB40A84094
:1029E000D6405D1EAB4130431843D440430709D065
:1029F0000F230340042B05D00300181D98429B4170
:102A00005B42E418230221D50125019B01241D40CE
:102A100000230022994622E61F2521006D42281A34
:102A2000C1400800202A1DD05F35AA1A94402343D4
:102A30005C1EA341072503431D400022002D09D041
:102A40000F2200241A401800042AD6D1030065077B
:102A50006402220BDB082B4301259946019B0024CD
:102A60001D40FCE50024E2E78022012512032243F9
:102A700001991203120B0D409946044CEFE5C04634
:102A8000FF030000FFFFFFFEFE070000FF0700003E
:102A9000F0B54646D6464F460C03C0B5CD0F4E00A6
:102AA000610A440F0C43C1005800400D84468A4619
:102AB0000F001903500F490A0143C648760DA84676
:102AC000DB0FD200844500D1D8E001204340AB4267
:102AD00000D1A6E06046351A002D00DC05E1002893
:102AE00010D10B00134300D1D7E06B1E002B00D098
:102AF0004BE153469F1ABA458041641A4042241A5A
:102B000001261EE0B34B9E4248D080231B0419438C
:102B1000382D00DD19E11F2D00DD4CE120230F00D1
:102B20005B1B10009A409F40E840531E9A41E940C9
:102B3000074317435346DF1B611ABA45A441644259
:102B40000C1B230200D4C5E06402650A002D00D1ED
:102B5000F6E0280000F054FC0300083B1F2B00DDCA
:102B6000E9E020223C00D21A9D40D4409F402543FA
:102B70009E4200DDDBE09E1B731C1F2B00DD0AE183
:102B800020223800D21A290097402C009140D840CA
:102B90007A1E9741DC40002601430F437B0709D092
:102BA0000F233B40042B05D03B1DBB42BF417F425E
:102BB000E4191F00230225D5864B01369E4200D121
:102BC000AFE0854B01251C4043466207FF086402C5
:102BD00076051743240B760D1D4000212403230B9B
:102BE0000C0D7E4A24051C431440330523435B002F
:102BF000ED075B082B43380019001CBC9046994632
:102C0000A246F0BD012543466207FF081743E408CA
:102C10001D40704B9E4236D024037605240B760D62
:102C2000DBE76346F31A002B00DC94E060460028E3
:102C300035D068488642B1D080273F043943382BCD
:102C400000DCFDE00A43170000217A1E974157443B
:102C500057458041091944420C1923023AD55D4B6E
:102C600001369E4200D14BE101225B4B1C407B08A8
:102C700017401F43E207174364088FE7080010431B
:102C800000D024E721E723003B4300D1B9E18022B3
:102C9000120314432403240B9FE72E007EE7080051
:102CA000104300D1CAE0581E8446002800D0E7E057
:102CB00052445245804164184042241817000126AE
:102CC000230207D50226CFE764462C4300D1B3E1A7
:102CD0002C0067467B0700D062E76307FF081F43AD
:102CE00001254346E4081D4093E7002D78D1751C6B
:102CF0006D056D0D012D00DCF2E05046801A824515
:102D0000BF41651A7F42ED1B8446280200D48CE047
:102D10005046171ABA4292410C1B5542651B984601
:102D200014E70125434600241D40002755E72A4C9F
:102D3000F61A2C4032E73D0028388540002717E777
:102D4000380000F05DFB203006E70A431700002141
:102D50007A1E9741EEE6002B00D0E5E0731C9C46FE
:102D60005B055B0D012B00DC9FE01A4B9C4500D1FD
:102D7000C5E0524452458041641840422418E70798
:102D8000520817436408664608E71248854200D196
:102D900085E01D00BCE629001F3EF140202B00D13C
:102DA0007FE04022D31A9D402F437D1EAF41002477
:102DB0000F4300268EE72B000F00203BDF40202D25
:102DC00071D040235D1BA9400A43511E8A41002156
:102DD0001743AFE6FF070000FFFF7FFFFFFF0F80F5
:102DE000002E3ED0B34EB44545D0802636046D4209
:102DF0003443382D00DDA8E01F2D00DD1FE1202623
:102E000027005046761BB740E84007435046B04085
:102E1000461EB041EC403843171ABA4292410C1B8F
:102E20005242A41A664698468BE6644667462C438F
:102E300000D08BE6002500260027EAE61E00ADE65E
:102E40001F2B60DC2027F81A0F00844687401000F3
:102E5000D840074360468240501E8241D940174304
:102E6000F5E626005046064305D0ED43002DD3D0AD
:102E7000904EB445BDD10C001700664698468DE6CD
:102E80008C4883420BD06346D9E6002D00D096E0F3
:102E90000800104300D1E2E00C0017009846854E70
:102EA0007CE6002580E700218EE72300504603439F
:102EB000002E00D0A8E0002B00D1DEE00B00134371
:102EC00000D16BE6524452458041641840422418B8
:102ED0001700230200D4FDE6774B66461C405DE6F2
:102EE000250050460543002ECFD1002D4FD10C00B8
:102EF000144300D1A0E00C00170098464EE6664649
:102F00000024002785E61F000800203FF840070046
:102F1000202B00D18EE04020C31A99400A43511E55
:102F20008A410021174392E6002E14D12600504614
:102F3000064362D0DB43002B5CD187189742924155
:102F400064185242A418664687E650462043441E41
:102F5000A041002460E7574EB4454ED08026360489
:102F60005B423443382B00DD7FE01F2B00DD8BE01C
:102F7000202627005046F61AB740D840074350464F
:102F8000B040461EB0410743DC40BF18D6E70D00F5
:102F9000154300D102E65046801A8245BF41651AAA
:102FA0007F42ED1B8446280200D48DE65046171A56
:102FB000BA4292410C1B5242A41A9846EEE50D000B
:102FC000154300D16BE750466707C00807438020D0
:102FD000E4080003044207D0CD08054204D12C00C8
:102FE0009846D70849070F437B0FE4001C43FF00B6
:102FF000304ED3E52F4EB445B4D10C0017006646D1
:10300000CCE500270024E8E5002B39D00B00134362
:1030100000D144E7C008670707438020E4080003A5
:103020000442E1D0CB080342DED1D70849070F4361
:103030001C00D9E7002171E700250027E9E52E00F3
:103040002700203EF740202D2FD04026751BAC4096
:1030500050462043441EA04100243843DCE680242F
:1030600000252403134E0027D3E5504620430700D4
:10307000781E87410024BF1860E70C0017008DE51B
:103080000C0017000B4E89E51E002700203EF7407C
:10309000202B0CD04026F31A9C4050462043441E5F
:1030A000A04107430024BF1848E70024D0E70024CC
:1030B000F3E7C046FF070000FFFF7FFF00000000AE
:1030C00030B5134D0A034B00120B5B0DC90F0024E2
:1030D000AB4210DD0F4CA3420FDC80240E4D640385
:1030E0002243ED1A1F2D0BDD0C48C31ADA4054425F
:1030F000002900D11400200030BD094BCC18FAE79C
:10310000084CE840A44663449A400243EFE7C046B7
:10311000FE0300001D04000033040000130400003F
:10312000FFFFFF7FEDFBFFFF00000000000000003D
:1031300070B5002830D0C317C4185C40C50F2000FC
:1031400000F05EF9174B184A1B1AD21A1F2A18DD15
:10315000164AD21A9440002224035B05240B5B0D0F
:103160000021100024030A0D240B12052243104CE9
:103170001B05224013435B00ED075B082B4319003E
:1031800070BD210091400A000B21081AC4405B0564
:103190002403240B5B0DE3E7002500230024002219
:1031A000DEE7C0461E0400003304000013040000E4
:1031B000FFFF0F8000000000000000000000000082
:1031C00010B5041E28D000F01BF9154B154A1B1A28
:1031D000D21A1F2A15DD144AD21A94400022240361
:1031E0005B05240B5B0D0021100024030A0D240B4A
:1031F000120522430D4C1B05224013435B00590866
:1032000010BD210091400A000B21081AC4405B0543
:103210002403240B5B0DE6E7002300240022E2E7F1
:103220001E0400003304000013040000FFFF0F80A1
:103230004100090E4B1C70B5DBB24602750AC40F83
:10324000012B14DDE0239B006D07360BCB1800210A
:103250000A0D280012051C4D32435B052A405B080D
:1032600013435B00E4075B082343190070BD00298A
:1032700014D1002D1ED0280000F0C2F80A281CDC52
:103280000B232A001B1ADA40030015339D400F4B15
:1032900012031B1A5B05160B5B0DD8E7002D06D039
:1032A000320B802636036D071643094BCFE7084BD8
:1032B0000026CCE700230026C9E703002A000B3BC9
:1032C0009A400025E3E7C046FFFF0F808903000016
:1032D000FF070000000000000000000000000000E8
:1032E000F0B54C00640D0B03621C450F5B0A5205E0
:1032F0002B43C90FC500520D012A28DD3A4AA618F2
:10330000FE2E1BDC002E3EDD80010200501E82419D
:103310006D0F2A43DB0013435A0704D00F221A40D3
:10332000042A00D004338022D2041A405AD0013635
:10333000FF2E03D09B015B0AF4B201E0FF240023BF
:103340005802E405400AC90720430843F0BD002C99
:1033500007D01D43F2D08020DB0080040343FF260A
:10336000DAE72B4303D00523DB08FF2C03D05B02F5
:103370005B0AE4B2E4E7002B32D08020C0030343B1
:103380005B025B0ADCE73200173214DB80221E2767
:1033900012041343BF1B1F2F0FDC144A94466444CE
:1033A0002A00A5402E00A340751EAE41FA403343CB
:1033B00013430026B0E70024D5E702225242961BB1
:1033C0001A00F240202F09D0094884466444A340E3
:1033D0002B435D1EAB41002613439DE70023F7E717
:1033E0000023ADE73400BFE780FCFFFF82FCFFFF56
:1033F000A2FCFFFF00000000000000000000000031
:103400001C2101231B04984201D3000C10391B0A14
:10341000984201D3000A08391B09984201D30009D8
:10342000043902A2105C40187047C046040302022F
:103430000101010100000000000000000000000088
:1034400010B5002903D1FFF7DBFF203002E0081C94
:10345000FFF7D6FF10BDC0460000000000000000CE
:1034600080B500AFEFF30983203383F3098862B698
:10347000BD4680BD0000000000000000000000000C
:10348000B0B500AF0F300ED072B6EFF30984203C18
:1034900084F3098880235B04E36100F0F9F80028D5
:1034A00003D1034BA361BD46B0BD024BA361FAE754
:1034B000F0000008ED00000800000000000000001F
:1034C00010B5C3691943037DC1610A2B0BD00B2BC7
:1034D00000D010BD836919408B42FAD1002383616B
:1034E00000F02EF8F5E783690B42F2D000238361E8
:1034F00000F026F8EDE7C0460000000000000000E4
:1035000070B5046806000D00A0420ED0E3682B439E
:10351000E360002D02D022691A4203D0A1686068DE
:10352000FFF7CEFF2468A642F0D170BD0000000076
:103530000022024B1B605B609A6070478005002090
:10354000002382680375054B1B6899689142FBD282
:103550005A68036042601060586070478005002020
:1035600010B572B6037D032B0AD0042B0CD0002BB0
:1035700004D001235B428361FFF7E2FF62B610BD16
:10358000002283691A60F4E7026843681A600268DF
:103590005360EEE7000000000000000000000000A3
:1035A000002382680375054B1B6899689142FBD81C
:1035B0005A680360426010605860704780050020C0
:1035C00070B50C4C25692875206803685C60236021
:1035D000012320610375EFF309832A69243B9A4292
:1035E00003D9054800F0B4F820692900FCF768FD0C
:1035F00070BDC04680050020E044010800000000C6
:1036000030B5050087B04B1C12D00B4C0B4A236918
:1036100001A800F0CDF92800FFF7D2FF049B002B92
:1036200002D001A800F004FA2369986907B030BD00
:10363000FFF7C6FF004CF7E7800500206135000862
:1036400070B504000F4DA1612869A3688268934298
:1036500010D9FFF775FF012306002C612375EFF3E6
:1036600009830269243B9A4208D831002000FCF704
:1036700027FD70BD2000FFF763FFFAE7024800F066
:1036800067F8F2E780050020E04401080000000030
:10369000044B1A69196890688B68984280414042CF
:1036A0007047C046800500200000000000000000B8
:1036B00070B50D4C236820691A685460226001229D
:1036C0001A752361FFF76CFF0500EFF309830269A8
:1036D000243B9A4202D9054800F03AF829002069B3
:1036E000FCF7EEFC70BDC04680050020E0440108F8
:1036F000FEE7C046000000000000000000000000DF
:1037000010B5FFF715FF00F043F90B4C80220B4971
:10371000200000F065F80A4B283C2061036101237A
:10372000084A0375136A08490B40136262B60748DA
:1037300000F076F810BDC046A8050020F04401084E
:103740000002002000ED00E0FFFF00FFF844010848
:1037500072B6014B5862FEE78005002000000000B1
:10376000F8B54746CE4680B580271B4DFF056C69EE
:10377000796A2B6AA268C81A904219D300212E00D8
:10378000884614369B18E2682B62914642462368AD
:103790005E606B61E260B34218D062B62069C847D0
:1037A00072B66C69796A2B6AA268C81A8242E9D932
:1037B0000A48844206D0D318581A022809D3401860
:1037C00001F07EFE0CBC90469946F8BD01F070FEFB
:1037D000E3E70220F3E7C0468005002094050020BF
:1037E00002230375002382604375C3617047C0469E
:1037F000826841681300203B19610169443ADA602C
:1038000011614169516105491162C26818009A60ED
:1038100002221A7500225A75DA617047E100000829
:103820008268436810B55521934203D21970013361
:103830009A42FBD172B6FFF7DBFF00210400FFF7CD
:10384000FFFE62B6200010BD000000000000000076
:1038500070B5451804005526A84203D226700134DD
:10386000A542FBD172B620394418210024392061C9
:10387000E1600B61049B20004B61074B0B6202234C
:1038800023750023A2606375E3610021FFF7D8FE72
:1038900062B6200070BDC046E100000800000000D4
:1038A00010B5034B1B6998610F20FFF789FE10BD0F
:1038B0008005002000000000000000000000000063
:1038C00010B572B6FFF7ECFF10BDC0460000000057
:1038D00010B5010072B60820FFF792FE62B610BD67
:1038E000064B10B51B69002905D0036098610320C1
:1038F000FFF786FE10BD01204042FBE78005002057
:10390000036810B5002B05D00022026099611800F1
:10391000FFF716FE10BDC0460000000000000000CA
:1039200010B500290AD0074B42681B6918605A601D
:10393000136043600420FFF763FE10BD0120404286
:10394000FBE7C046800500200000000000000000EA
:10395000036810B5984206D01A68026050609961F9
:103960001800FFF7EDFD10BD000000000000000092
:1039700070B5040000680D00844208D0036823601D
:103980005C608561FFF7DCFD20688442F6D170BD84
:10399000054B1A0014325A619A6101225242DA61CF
:1039A00000221A627047C046800500200000000017
:1039B00070B503618023DB050500C260586A0229E7
:1039C00000D20221164E32007369143293421DD088
:1039D000326A4018841A9A68944203D211E01B6834
:1039E000A41A9A68A242FAD35A682B606A601560DA
:1039F0005D60AC609A68141B9C6001235B42F361BC
:103A000070BD01F05DFD73699A68EBE73062756126
:103A1000B56140182B606B60A96001F041FDEFE7D4
:103A200080050020000000000000000000000000F1
:103A30001A4B10B55A6982420FD04168026814339C
:103A40000A60026851600021C1609A4204D0916806
:103A500083688C466344936010BD1800002411688D
:103A6000143059614860D460814214D088689268EB
:103A7000844662448A608021C905496A1B6ACB1A60
:103A80009A42E9D9D01A022803D3401801F018FD50
:103A9000E2E70220F9E701F00BFDDDE780050020F9
:103AA0007047C04600000000000000000000000059
:103AB0007047C04600000000000000000000000049
:103AC000FEE7C0460000000000000000000000000B
:103AD0000322F0B5C64690467D329446002600B5D6
:103AE000114F124D124C134B1349BC449C420DD93B
:103AF0001A0001C901C29442FBD8DA4314194246A4
:103B0000944304341B199D4202D940C39D42FCD802
:103B10001037674504D239687B68BC68FD68E5E703
:103B200004BC9046F0BDC04618450108883F0020FF
:103B3000883F0020883F0020847E010800000000AC
:103B400010B501F0E5F80C4801F092F900F050FAD8
:103B500000F0EEFA00F0C4FC00F08AFD00F048FF2F
:103B600001F066FC01F00CFD01F022FB04F010F9FD
:103B700001F08EFC10BDC046F052010800000000AC
:103B800030B51D00002404325543C361039B4D1919
:103B9000C362049B45610060406084600161C16054
:103BA0008261016244628462036330BD00000000F0
:103BB0000023022110B5026A83600261C260436281
:103BC00083624942FFF7D4FE10BDC04600000000EA
:103BD000C3680269934201D0181D704782680020B3
:103BE000002AFAD1F8E7C0460000000000000000FB
:103BF000C36810B519608268013282608269944698
:103C000042696344C360934201D3036AC3600021E5
:103C1000FFF79EFE10BDC04600000000000000003F
:103C200070B504000D0005E029002000FFF778FEC4
:103C3000002809DBA368002BF6D000202269131DA1
:103C4000126863629B18A36270BDC046000000004A
:103C5000826983689446013B8360036942696344D7
:103C600010B50361934201D3036A036100234362E9
:103C7000C36A002B00D0984710BDC046000000006A
:103C800070B5040072B6436A002B0CD0A26A1D788E
:103C900001336362934202D262B6280070BD2000F5
:103CA000FFF7D6FFF8E7FFF7BBFF051EF4D1636A05
:103CB000ECE7C0460000000000000000000000002B
:103CC000F0B557464E464546DE46E0B5040083B0A3
:103CD0000F009046994672B68023DB055A6A00268B
:103CE0004A440192012252424A4493469A460FE0C6
:103CF0004022380010F0ECFA636AA26A4033403781
:103D0000636240369A421BD962B646451ED272B6ED
:103D1000616A002922D04246A36A951B5B1A9D4224
:103D200000D91D00402DE3D82A00380010F0D0FA49
:103D3000636AA26A5B197F19636276199A42E3D8B3
:103D40002000FFF785FF62B64645E0D3300003B0A0
:103D50003CBC90469946A246AB46F0BD5B46033359
:103D60000CD85346596A019B591A89450CD3200037
:103D7000FFF756FF002807D1616ACCE749462000CB
:103D8000FFF74EFF0028F7D062B6DFE70000000023
:103D9000043210B5140083605C43C36100234362A6
:103DA0008362029B0C19C362039B00604060016147
:103DB000C160446182610162036310BD00000000C4
:103DC000C36902218360036A10B50361C3600023E5
:103DD000494243628362FFF7CBFD10BD0000000043
:103DE0000369C2689A4203D0180008C80B60704784
:103DF00082680020002AFAD1F6E7C04600000000E1
:103E0000826983689446013383600369426963442D
:103E100010B50361934201D3036A03610021FFF7E8
:103E200097FD10BD00000000000000000000000031
:103E300070B504000D0005E029002000FFF770FDBB
:103E400000280ADBA368002BF6D0E36800201A1DC7
:103E50006262A26994466344A36270BD00000000E0
:103E6000C36810B519608268013A8260826994461D
:103E700042696344C360934201D3036AC360002371
:103E80004362C36A002B00D0984710BD00000000B9
:103E900070B504000D0072B6436A002B0FD01D7080
:103EA000636AA26A01336362934202D262B600205F
:103EB00070BDA3692000191FFFF7D2FFF6E71100BC
:103EC000FFF7B6FF002801D1636AE8E762B6EFE7C3
:103ED000F0B557464E464546DE46E0B5040083B091
:103EE0000F009046994672B68023DB055A6A002679
:103EF0004A440192012252424A4493469A460FE0B4
:103F00004022390010F0E4F9636AA26A4033403776
:103F1000636240369A421BD962B6464520D272B6D9
:103F2000606A002824D04246A36A951B1B1A9D4252
:103F300000D91D00402DE3D82A00390010F0C8F93F
:103F4000636AA26A5B197F19636276199A42E3D8A1
:103F5000A3692000191FFFF783FF62B64645DED331
:103F6000300003B03CBC90469946A246AB46F0BD3B
:103F70005B4603330CD85346596A019B591A89454D
:103F80000CD32000FFF754FF002807D1606ACAE76E
:103F900049462000FFF74CFF0028F7D062B6DFE764
:103FA0000300C1681A690020914200D070479A68E6
:103FB000002AFBD05A6A002AF8D0043A521AF5D0E7
:103FC0000A609A68013A9A609A6994465A6961440B
:103FD000D960914201D31A6ADA60002201205A6244
:103FE000E4E7C04600000000000000000000000000
:103FF00010B500F025F810BD000000000000000022
:104000000123037000230361436183617047C0464D
:1040100010B5040072B6016100F05AF80223237053
:1040200062B610BD000000000000000000000000AB
:1040300010B500F01DF810BD0000000000000000E9
:1040400010B5064C2000FFF7DBFF054BE361054C84
:104050002000FFF7D5FF044BE36110BD8006002070
:1040600098450108A0060020B445010800000000A2
:1040700003699B78012B13D0002B07D0022B04D1AE
:10408000C3691B6800291DD0DA617047002915D16A
:10409000C1690B684968083389005B181A60F4E746
:1040A000002907D1C1690B6849680C3389005B1886
:1040B0001A60EAE7C3691B689A61E6E7C3691B688F
:1040C0005A61E2E71A61E0E700000000000000002A
:1040D000037810B5012B00D010BD0F4B984214D0BF
:1040E0000E4B984211D0C1690A68CC681368896880
:1040F0002340136001238B40146800212343136085
:1041000003691A88FFF7B4FFE6E78023044A9B059A
:10411000D1690B43D361E6E780060020A0060020AA
:10412000001002400000000000000000000000003D
:1041300010B500F01DF810BD0000000000000000E8
:1041400001230370002343607047C0460000000055
:1041500010B5040072B6416000F082F802232370AB
:1041600062B610BD0000000000000000000000006A
:1041700010B50248FFF7E4FF10BDC046C00600209E
:104180001F2201230A40F0B593400F2913D8244A77
:10419000466803259446CA0092590F260D40AD008B
:1041A00012093240AE40AA408C08A4006444A768BB
:1041B000B7433A43A2601B4A13421AD14268C9006E
:1041C00051180A68D00715D4D843174DAC6804407D
:1041D000AC60154C920715D5E2681A43E2604A6854
:1041E000002A15D0104A11680B431360536803402E
:1041F0005360F0BD0C4CA0681843A060D8430A4C33
:104200009207E9D4E2680240E2604A68002AE9D1F4
:10421000054A51680B435360136803401360E8E795
:10422000000001400000847F000401400000000005
:104230001F23012219408A40D143074B18680840C8
:104240001860586808405860986808409860D868B6
:104250000140D9605A61704700040140000000002D
:10426000037870B50500012B14D00024042604E067
:104270000134FFF785FF202C0BD06A68E3009B58C0
:10428000210028003342F3D10134FFF7D1FF202C65
:10429000F3D170BD00F004F9E7E7C046000000006C
:1042A00003230C4A70B55469754623405361E307F4
:1042B0000AD4A30704D5084801214368DB6898475E
:1042C0002800FFF7DDF870BD0348002143685B68F4
:1042D0009847EEE700040140C006002000000000FF
:1042E0000C230C4A70B5546975462340536163072B
:1042F0000AD4230704D5084803214368DB6998479B
:104300002800FFF7BDF870BD0348022143685B69D0
:104310009847EEE700040140C006002000000000BE
:10432000344A70B5344B5469754623405361E306F3
:104330005AD4A30652D463064AD4230642D4E305D2
:104340003AD4A30532D463052AD4230522D4E30446
:104350001AD4A30412D463040AD4230404D527482E
:104360000F214368DB6F98472800FFF789F870BD7D
:1043700022480E2143685B6F9847EEE71F480D21E6
:104380004368DB6E9847E6E71C480C2143685B6E88
:104390009847DEE719480B214368DB6D9847D6E75D
:1043A00016480A2143685B6D9847CEE713480921F8
:1043B0004368DB6C9847C6E71048082143685B6C8C
:1043C0009847BEE70D4807214368DB6B9847B6E77F
:1043D0000A48062143685B6B9847AEE7074805210A
:1043E0004368DB6A9847A6E70448042143685B6A90
:1043F00098479EE700040140F0FF0000C00600203F
:104400000A4A10B55169136874460B40802149026D
:104410000B40536105D08423054810214268D358CE
:1044200098472000FFF72CF810BDC046000401405B
:10443000C006002000000000000000000000000096
:10444000134B70B55A691C6875461440D02252034C
:1044500022405A61A30314D423030BD4E30205D5ED
:10446000A4230C4814214268D35898472800FFF72A
:1044700007F870BD9C23074813214268D35898471A
:10448000ECE78C23034811214268D3589847E3E7AF
:1044900000040140C00600200000000000000000F1
:1044A00010B50321052001F073FE0321062001F061
:1044B0006FFE0321072001F06BFE0321012001F0B4
:1044C00067FE03210C2001F063FE0321022001F0AE
:1044D0005FFE10BD000000000000000000000000B2
:1044E00010B500F02DF810BD000000000000000025
:1044F00001230370002343607047C04600000000A2
:1045000010B5040072B6416000F02AF8022323704F
:1045100062B610BD000000000000000000000000B6
:10452000032310B5037000F053F810BD0000000025
:1045300010B572B6FFF7F4FF62B610BD00000000C0
:1045400010B50348034BC360FFF7D2FF10BDC04650
:10455000C806002000040040000000000000000029
:10456000037870B50400012B12D06568A068296833
:10457000FBF746FE0022A968E36801381A6059601B
:10458000FF2180B298621A61EA688A43DA6070BDDE
:10459000094B9842E9D10220084BD9690143D961FE
:1045A0001A69022102431A6100220E301A6101F0D9
:1045B000EFFD034BA360D8E7C806002000100240BF
:1045C000006CDC02000000000000000000000000A1
:1045D000C368013910B5D9620124002142685C61C9
:1045E000526859621961002A02D0DA682243DA60FF
:1045F00005221A6010BDC046000000000000000047
:104600000022FF21C3681A601A61DA688A43DA60FF
:104610007047C046000000000000000000000000DD
:104620000022C36810B51A6103780400042B04D07B
:10463000636820005B68984710BD023B0370FFF77A
:10464000DFFFF5E7000000000000000000000000B0
:1046500010B574460348FFF7E3FF2000FEF710FF94
:1046600010BDC046C8060020000000000000000089
:1046700010B500F02DF910BD000000000000000092
:1046800001230370002343607047C0460000000010
:1046900010B5040072B6416000F02AF902232370BD
:1046A00062B610BD00000000000000000000000025
:1046B00010B5040084B072B60020A06003302070F2
:1046C000089802900798019006980090200000F04A
:1046D0003FF9431C04D00223237062B604B010BD1E
:1046E00005232370F9E7C046000000000000000029
:1046F000C26930B5046AFF2A0ED800251204436847
:10470000616898688023DB000343064801400B433F
:104710002B431343636030BDFF22802512046D04D8
:10472000EDE7C046FFFF00FE0000000000000000B3
:10473000426930B5016AFF2A0BD800241204406890
:104740004B68064D80682B400343234313434B6063
:1047500030BDFF22802412046404F0E7FFFF00FE56
:10476000FC2270B5564D92012C6A7646A369E3612E
:10477000134229D1FE221A4203D13000FEF780FEF7
:1047800070BDDA0600D58DE02A782168032A3FD073
:1047900004220A4266D01A4264D0616AA869017094
:1047A000A9690131A961E9690139E961002902D1E9
:1047B0002168914321601A063ED52B78032B6DD1D9
:1047C0002800FFF7B5FFD8E7062122688A43226058
:1047D000DA0518D4AA68990502D502210A43AA600D
:1047E000590555D508210A43AA60DB0402D52023C8
:1047F0001A43AA6072B60221280049420C30FFF722
:104800007FF862B6B9E70122A9680A43AA60E2E725
:10481000013A0A420ED01A420CD0296908780131B7
:1048200029616969A06201396961002902D12168A1
:10483000914321601A06C3D45B069ED52B78032BC7
:1048400015D1EB69002B12D02800FFF751FF04228D
:10485000236813432360802361689B010B436360DB
:104860002A708AE71A0619D45B0600D485E78023EC
:104870006268DB0113434022636023689343236033
:1048800072B6280000210C30FFF73AF862B674E7E0
:10489000DB04ACD4002A00D16FE7ABE72800FFF7B8
:1048A00027FF6AE70423AA681343AB60802362688A
:1048B000DB0113434622636023689343236099E737
:1048C000D8060020000000000000000000000000EA
:1048D00010B5044C2000FFF7D3FE0023E360024B29
:1048E000236210BDD80600200054004000000000E4
:1048F000012270B5046A050023689343236003789E
:10490000012B0BD090236A6851680B432360136816
:104910000122236123681343236070BD094B984231
:10492000F0D18022084B92031969172011431961B5
:1049300000211961D9690A43DA61032101F028FCD9
:10494000E0E7C046D806002000100240000000004A
:10495000F8B50600046A0020B06062B632618022B9
:104960007361069BD205B361079B576AF36172B608
:104970008025A3692D022B420FD0F420536AFF300B
:10498000DB1B834204D927E0536ADB1B834223D815
:1049900062B672B6A3692B42F6D17368326A9B681D
:1049A0001B051CD551603000FFF7C2FE4222236870
:1049B000300013432360802362689B0113436360CC
:1049C0000C300899FEF78CFF431C04D180236268E9
:1049D000DB0113436360F8BD01204042FBE749005F
:1049E0005160E0E70000000000000000000000004F
:1049F00010B500F05DF810BD0000000000000000E0
:104A000001230370002343607047C046000000008C
:104A100010B5040072B6416000F06AF802232370FA
:104A200062B610BD000000000000000000000000A1
:104A300010B5040072B600F093F80323237062B639
:104A400010BDC04600000000000000000000000093
:104A500070B505000C000B071FD4A3070ED56A68BC
:104A60001369002B16D00421297091682800490889
:104A70000A0098472B78042B0CD070BD6307FCD537
:104A80006A681369002BF8D0926800215208280048
:104A90009847F2E702232B70EFE70248FEF758FE33
:104AA000DBE7C046D0450108000000000000000020
:104AB00010B5094C2000FFF7A3FF084B084AA3607C
:104AC00080235B00238200236261064AE3606382E5
:104AD000E261A361236210BDFC06002000380040A3
:104AE00084460108AE150000000000000000000030
:104AF00070B505780400012D15D06368A0681622F2
:104B0000995E8022016214255D5F238A12012B4386
:104B10001343C361E368002B04D01962618A2943FF
:104B20000A43DA6170BD0B4B9842E6D180230A4AF2
:104B3000DB01D1690B43D36102210300074A4069BD
:104B400001F08EFB0022A3681A605D600C33636283
:104B5000D3E7C046FC06002000100240514A00087E
:104B600030B506244268938A91681C4200D04900FF
:104B70004369002B0BD001255B68C4691C60446A43
:104B80009C605468DC6059601C682C431C6083691D
:104B9000002B0BD05B68046A12681C60846A9C60FE
:104BA000DA60596001211A680A431A60802381681B
:104BB000DB00CA691A43CA61C268002A02D0D169FF
:104BC0000B43D36130BDC046000000000000000070
:104BD000242370B5184C75466269E05C11680B00BF
:104BE0000F21C34019400CD00E0025238640E35C02
:104BF0005660124ADB009E58002E02D0D318586827
:104C0000B0473823A26AE05C11680B000F21C34053
:104C100019400CD03923E35C0C0084405460074AEF
:104C2000DB009C58002C02D0D3185868A0472800FD
:104C3000FEF726FC70BDC04648460108E00700208C
:104C40004C2370B52E4C7546E26BE05C11680B008E
:104C50000F21C34019400CD00E004D238640E35C69
:104C60005660284ADB009E58002E02D0D3185868A0
:104C7000B0476023226DE05C11680B000F21C34038
:104C800019400CD00E0061238640E35C56601D4A3B
:104C9000DB009E58002E02D0D3185868B04774230A
:104CA000626EE05C11680B000F21C34019400CD00C
:104CB0000E0075238640E35C5660124ADB009E5866
:104CC000002E02D0D3185868B0478823A26FE05C4A
:104CD00011680B000F21C34019400CD08923E35CFD
:104CE0000C0084405460074ADB009C58002C02D022
:104CF000D3185868A0472800FEF7C2FB70BDC04615
:104D000048460108E0070020000000000000000005
:104D10001B4B01219A6A0022494210B599629A629E
:104D2000186919611A61D86816490143D960802150
:104D3000DA60D86949050143D961802112484900E8
:104D4000046821430160C020196A800001400138D5
:104D5000FF38814203D08021490219621A62802201
:104D6000074B1202196A114207D18021186A890083
:104D700001431962196A0A431A6201F049FA10BD27
:104D800000100240FFFFBFFF007000400000000065
:104D900001212C4A13680B43136001311368194237
:104DA000FCD0032153688B4353605368093153602F
:104DB000244A53680B40FCD1F9211068014011606E
:104DC00001215360536B0B4353631E4A0131536BF4
:104DD0001942FCD08023516B5B020B43802153634B
:104DE000184A8902536B0B42FCD00121536A0B43D2
:104DF0005362144A0131536A1942FCD0E523DB04A3
:104E000053600023D36210331363802311685B0463
:104E10000B43802113600B4A890413680B42FCD0BA
:104E20001121094B196053680F390B435360054A30
:104E30000A3153680B40082BFBD1012193690B43C6
:104E40009361704700100240002002400000000003
:104E50004B6843608B688360CB68C3600B694361B8
:104E60004B6903628B6943620B6803607047C046FD
:104E7000FC23134ADB03516910B50B430400010006
:104E800090205361C005FFF7E3FF21000D481C315E
:104E9000FFF7DEFF21000C483831FFF7D9FF210072
:104EA0000A485431FFF7D4FF210009487031FFF759
:104EB000CFFF210007488C31FFF7CAFF10BDC04665
:104EC000001002400004004800080048000C0048A0
:104ED000001000480014004800000000000000001E
:104EE000F0B557464E464546DE46E0B5032713006B
:104EF0003A005C07E40FA046DD085C091A405B0538
:104F00001B0F9A460123994643463D4083B02740F4
:104F1000BC4600262F00019310E05C46036AA343C1
:104F2000444623430362490839D0019BBF005B001C
:104F3000019363469B009C46920001364B460B4210
:104F4000F1D00723544633409B009C40A0460F24D9
:104F50009C40A3464C46B44003254368A343019CB0
:104F60002343436073009D40EB43654684681C40C7
:104F70003C438460C4681C402C43C460022A15D0A2
:104F80000468234013430360072EC6D95C46436A76
:104F90004908A3434446234343620029C5D103B0D3
:104FA0003CBC90469946A246AB46F0BD072E0BD8B6
:104FB0005D46046AAC4345462C43046204682340C2
:104FC000022423430360AEE75D46446AAC43454692
:104FD0002C434462F2E7C0460000000000000000DD
:104FE00030B5BE25046B6D00625983B01368197823
:104FF000042901D003B030BD217A0229FAD11179F8
:1050000001228A401B891342F4D1200001A94030BB
:10501000FEF7E6FE021EEDD0635919791868019B70
:1050200000F01EFBE6E7C0460000000000000000A4
:1050300070B5BE25046B6D00625913681978042998
:1050400000D070BD217A0229FBD1517901228A401A
:105050005B891342F5D120000C30FEF7B9FD021E2A
:10506000EFD0635959791868802300F0E1FAE8E736
:1050700070B50400BE20400020580068057800206C
:10508000042D00D070BD20000C30FEF719FEF9E7AA
:105090000300BE204000185810B5006804780020B6
:1050A000042C00D010BD0C33180001235B42FEF726
:1050B00007FEF7E70000000000000000000000000D
:1050C00070B50400BE20400020580068057800201C
:1050D000042D00D070BD20004030FEF7F9FEF9E746
:1050E0000300BE204000185810B500680478002066
:1050F000042C00D010BD4033180001235B42FEF7A2
:10510000E7FEF7E7000000000000000000000000DC
:10511000BE235B00C35810B51B681B78042B03D15A
:105120000C30FEF7ADFD10BD02204042FBE7C0464B
:10513000BE235B00C35810B51B681B78042B05D138
:1051400001210C304942FEF79BFD10BD0220404278
:10515000FBE7C04600000000000000000000000067
:10516000BE235B00C35810B51B681B78042B03D10A
:105170004030FEF78DFE10BD02204042FBE7C046E6
:10518000BE235B00C35810B51B681B78042B05D1E8
:10519000012240305242FEF77BFE10BD0220404209
:1051A000FBE7C04600000000000000000000000017
:1051B0007047C04600000000000000000000000032
:1051C00003000F4A10B504C343600123040001002B
:1051D00003720C4B82B0009374310C3001940123A4
:1051E0008022FEF7CDFC21002000074BF831009310
:1051F0004030019401238022FEF7CAFD02B010BDA9
:10520000DC45010831500008E14F000800000000B3
:105210000A6872B60B7909339B00D31858604B7932
:1052200011339B0098508B79002B03D009339B00DE
:10523000D3185860BE235B00C1507B3BFF3B037219
:1052400062B670470000000000000000000000008F
:1052500010B5040002210430FEF752F920000C3092
:10526000FEF7A6FC20004030FEF7AAFD10BDC046A8
:1052700070B5050004000C352800FEF799FC2000ED
:105280004030FEF79DFD201D0121FEF739F9280071
:10529000FEF79EFCBE235B00E358020059791868B4
:1052A000802300F0C5F970BD000000000000000080
:1052B0007423C15C143B02000B400020202B00D063
:1052C00070475533D35C212B03D0222B08D0202BE1
:1052D000F6D1064B1067936607230120D366EFE7EC
:1052E0009066D06610670120EAE7C04600040020FF
:1052F00070B5BE256D00425982B01368040019785C
:10530000042901D002B070BD017A0229FAD11179C5
:1053100001228A401B891342F4D106004036300036
:10532000FEF73EFE0028EDD001A93000FEF758FD43
:105330006359020019791868019B00F091F9E1E7BF
:105340000B00F0B509339B00C3185C6883B00500FF
:105350000E00002C19D072B6B700201D0821EF19DD
:10536000FEF7CEF8FB6840345B691B68002B1FD149
:1053700001A92000FEF734FD002808D00200019B9F
:105380003100280000F06CF962B603B0F0BDFA6895
:1053900053691B68002BF7D0128A013A1342F3D1EC
:1053A0002A00002374323100280000F059F9EBE79D
:1053B0002000FEF725FD01A92000FEF711FD0028C1
:1053C000DCD1E4E700000000000000000000000065
:1053D0001131890070B50C58002C20D072B6BE2651
:1053E0002500201D04217600FEF78AF8A3590C350C
:1053F0001A685B79280002339B00D3185B689B69AD
:105400005968FEF7F5FB2800FEF7E2FB021E05D007
:10541000A35959791868802300F00AF962B670BD63
:105420007047C046000000000000000000000000BF
:1054300010B500F00DF810BD0000000000000000E5
:1054400001230370002343607047C0460000000042
:1054500010B5074C2000FFF7F3FF064BA360064B87
:10546000E36014332361054B6361054BA36110BDF9
:1054700028070020003001405C4601080A100000A7
:1054800018100000000000000000000000000000F4
:1054900010B500F035F810BD00000000000000005D
:1054A00080230022DB0558631A610232DA607047FC
:1054B00080230022DB05DA607047C0460000000050
:1054C0008023DB05586370470000000000000000E7
:1054D0008023DB051A6910B57446920705D50022B2
:1054E0001A6172B6FEF73CF962B62000FDF7C8FFFC
:1054F00010BDC046000000000000000000000000D9
:1055000001220E4910B5CB690F201343CB610C4922
:105510008B6813438B6080230A49DB059962012164
:105520004942D962002199615963D96059605A6131
:1055300002311A6000F02CFE10BDC046001002407F
:1055400000580140BF1200000000000000000000F1
:10555000762310B50400C25C0833C25400F080FC0E
:1055600063681B68002B02D00121200098470323A9
:10557000237010BD000000000000000000000000CB
:1055800010B500F03DFC10BD000000000000000060
:1055900001230370002301004360030000222C3329
:1055A00048311A60DA6104338B42FAD102814281B8
:1055B0007047C0460000000000000000000000002E
:1055C00010B5040072B641600300010000220C33E4
:1055D0002C3104C38B42FCD1200000F019FC0223C3
:1055E000237062B610BDC04600000000000000003D
:1055F0008B1C9B0070B5C318050050690E00140089
:105600005A60002803D0102200210EF071FEA0691C
:10561000002803D0102200210EF06AFE310028007D
:1056200000F02EFC70BDC04600000000000000002D
:1056300070B501258D4044892C4344818C1CA40005
:1056400004196468A46923600023A260636000F009
:10565000EFFC70BD00000000000000000000000032
:1056600070B501258D4004892C4304818C1CA40055
:1056700004196468646923600023A260636000F019
:10568000FFFC70BD000000000000000000000000F2
:10569000022310B57C210370002300224352023103
:1056A000425401314254038143810100030004004C
:1056B00000220C332C3104C38B42FCD16423200024
:1056C000E25400F055FC63681B68002B02D00021F7
:1056D0002000984710BDC0460000000000000000F8
:1056E00005230370436810B51B68002B01D003210C
:1056F000984710BD000000000000000000000000FE
:1057000004230370436810B51B68002B01D00421EB
:10571000984710BD000000000000000000000000DD
:10572000F8B500226423C25402000400743200F071
:1057300067FC63689B68002B22D0200098470028F4
:105740001ED0E16E7B23E25C013BE35C120213435B
:105750008B4200D382E07422E366A25C52B2002A3C
:1057600000DA82E0002B4AD105226423E25472B6AB
:105770000023002200212000FFF772FF62B616E02E
:1057800074276026E35D1E4012D00021200000F047
:10579000B7FC0021200000F09BFC63681B68002B15
:1057A00002D005212000984706226423E254F8BD68
:1057B00075227F21A55C0A002D021A401543C022E4
:1057C0009200954200D1D7E025D9C022D20095425F
:1057D00000D1BAE057D99022120195426FD0844B84
:1057E0009D4200D1A9E080231B019D42CDD1230021
:1057F0007F33A36601232667E3660121A2E7042223
:105800006423E25472B60021E36EA26E2000FFF71B
:105810000FFF62B6CBE7022D00D1BBE000D87FE0DE
:105820008022520095425BD002329542ADD1762261
:10583000A25C002AA9D10F217832A25C114008D0C5
:1058400052B22000002A00DAC9E000F071FC742393
:10585000E35C0022A266E266226720E07423E25C39
:105860000B0052B2002A00DB7CE7002B1BD0012288
:105870006423E25472B60021E36EA26E2000FFF7AB
:10588000EFFE62B693E75B4A954237D0FF32FF32B4
:10589000954200D079E7584AA666E66622675BB271
:1058A000002B00DB60E703226423E25472B600237E
:1058B000002200212000FFF7BBFE62B677E77622C8
:1058C000A25C6254002A7AD10332227062681268A4
:1058D000002ABED00221200090477423E35CB8E781
:1058E0007622A25C012A00D04FE77C210220625A76
:1058F00082436252A666E6662667D0E77622A25CFD
:10590000002A00D041E70F217832A25C1140A0D0DC
:1059100052B22000002A67DB00F0DAFBE35D98E773
:10592000002D07D123007C33A36602232567E3669D
:10593000022107E7012D00D027E7304B0221A366A3
:105940000223E36600232367FCE67923E25C013B44
:10595000E35C12021343772176226068A25C4568FB
:10596000615C2000A847002800D10EE74368016869
:10597000A366E1662667E5E67622A25C012A00D0EE
:1059800003E77C210220625A02436252A666E66661
:10599000266784E77823E15C4BB2002B12DB0F23F0
:1059A0002000194000F004FB012812D0022800D08A
:1059B000EBE6134BE066A36626670221C2E60422EB
:1059C000227083E70F232000194000F009FB012813
:1059D000ECD10C4BE566A36626670221B2E600F027
:1059E000BFFB7423E35C34E700F08AFBE35D30E740
:1059F000020C000002030000515500082046010877
:105A0000184601081C4601080000000000000000C4
:105A1000642310B5C35C0400062B14D8214A9B00F4
:105A2000D3589F46002100F06BFB0021200000F0BE
:105A30004FFB63681B68002B02D0052120009847AC
:105A400006226423E25410BD7B23E25C013BE35C4D
:105A5000C06E12021343834205D9E368198AFAF72C
:105A600055FC002913D003226423E25472B60023AC
:105A7000002200212000FFF7DBFD62B6E3E7036FA1
:105A8000002B00D0984700226423E254DBE772B673
:105A9000002300222000FFF7E3FD62B60222642308
:105AA000E254D0E7FC4501080000000000000000BF
:105AB000642110B5425C0400062A08D801239340F3
:105AC00067221A4211D11A0702D4DB061FD410BD77
:105AD000C3689B695B68002BF9D1036F002B00D072
